{
	"data": {
		"bytecode": {
			"linkReferences": {},
			"object": "6080604052348015600f57600080fd5b50610b378061001f6000396000f3fe608060405234801561001057600080fd5b50600436106100415760003560e01c80636b2fafa91461004657806375c6e781146100765780639b6bd89c146100a6575b600080fd5b610060600480360381019061005b91906103f8565b6100c2565b60405161006d91906104b5565b60405180910390f35b610090600480360381019061008b919061060c565b6101a4565b60405161009d9190610683565b60405180910390f35b6100c060048036038101906100bb919061060c565b610352565b005b6060600080600084815260200190815260200160002080546100e3906106cd565b80601f016020809104026020016040519081016040528092919081815260200182805461010f906106cd565b801561015c5780601f106101315761010080835404028352916020019161015c565b820191906000526020600020905b81548152906001019060200180831161013f57829003601f168201915b50505050509050827f51e16da829285e110ac9fb08565baaea4e1bf50f8633f01afd7ac9fef33bd49482604051610193919061074a565b60405180910390a280915050919050565b60008060008085815260200190815260200160002080546101c4906106cd565b80601f01602080910402602001604051908101604052809291908181526020018280546101f0906106cd565b801561023d5780601f106102125761010080835404028352916020019161023d565b820191906000526020600020905b81548152906001019060200180831161022057829003601f168201915b5050505050905060008360405160200161025791906107bb565b604051602081830303815290604052805190602001208260405160200161027e91906107bb565b60405160208183030381529060405280519060200120149050847f37c2a17cddbea8f1b888d6fd9218cc24b58f39dfd442d9c1202ba76a3423a64482836102fa576040518060400160405280601981526020017f4861736820766572696669636174696f6e206661696c65642e00000000000000815250610331565b6040518060400160405280601b81526020017f48617368207665726966696564207375636365737366756c6c792e00000000008152505b60405161033f9291906107d2565b60405180910390a2809250505092915050565b80600080848152602001908152602001600020908161037191906109ae565b50817f962fb7a924159dc0966b10da109020686f23e058ede690e3b46058d486099dee826040516103a29190610acc565b60405180910390a25050565b6000604051905090565b600080fd5b600080fd5b6000819050919050565b6103d5816103c2565b81146103e057600080fd5b50565b6000813590506103f2816103cc565b92915050565b60006020828403121561040e5761040d6103b8565b5b600061041c848285016103e3565b91505092915050565b600081519050919050565b600082825260208201905092915050565b60005b8381101561045f578082015181840152602081019050610444565b60008484015250505050565b6000601f19601f8301169050919050565b600061048782610425565b6104918185610430565b93506104a1818560208601610441565b6104aa8161046b565b840191505092915050565b600060208201905081810360008301526104cf818461047c565b905092915050565b600080fd5b600080fd5b7f4e487b7100000000000000000000000000000000000000000000000000000000600052604160045260246000fd5b6105198261046b565b810181811067ffffffffffffffff82111715610538576105376104e1565b5b80604052505050565b600061054b6103ae565b90506105578282610510565b919050565b600067ffffffffffffffff821115610577576105766104e1565b5b6105808261046b565b9050602081019050919050565b82818337600083830152505050565b60006105af6105aa8461055c565b610541565b9050828152602081018484840111156105cb576105ca6104dc565b5b6105d684828561058d565b509392505050565b600082601f8301126105f3576105f26104d7565b5b813561060384826020860161059c565b91505092915050565b60008060408385031215610623576106226103b8565b5b6000610631858286016103e3565b925050602083013567ffffffffffffffff811115610652576106516103bd565b5b61065e858286016105de565b9150509250929050565b60008115159050919050565b61067d81610668565b82525050565b60006020820190506106986000830184610674565b92915050565b7f4e487b7100000000000000000000000000000000000000000000000000000000600052602260045260246000fd5b600060028204905060018216806106e557607f821691505b6020821081036106f8576106f761069e565b5b50919050565b7f4861736820726574726965766564207375636365737366756c6c792e00000000600082015250565b6000610734601c83610430565b915061073f826106fe565b602082019050919050565b60006040820190508181036000830152610764818461047c565b9050818103602083015261077781610727565b905092915050565b600081905092915050565b600061079582610425565b61079f818561077f565b93506107af818560208601610441565b80840191505092915050565b60006107c7828461078a565b915081905092915050565b60006040820190506107e76000830185610674565b81810360208301526107f9818461047c565b90509392505050565b60008190508160005260206000209050919050565b60006020601f8301049050919050565b600082821b905092915050565b6000600883026108647fffffffffffffffffffffffffffffffffffffffffffffffffffffffffffffffff82610827565b61086e8683610827565b95508019841693508086168417925050509392505050565b6000819050919050565b60006108ab6108a66108a1846103c2565b610886565b6103c2565b9050919050565b6000819050919050565b6108c583610890565b6108d96108d1826108b2565b848454610834565b825550505050565b600090565b6108ee6108e1565b6108f98184846108bc565b505050565b5b8181101561091d576109126000826108e6565b6001810190506108ff565b5050565b601f8211156109625761093381610802565b61093c84610817565b8101602085101561094b578190505b61095f61095785610817565b8301826108fe565b50505b505050565b600082821c905092915050565b600061098560001984600802610967565b1980831691505092915050565b600061099e8383610974565b9150826002028217905092915050565b6109b782610425565b67ffffffffffffffff8111156109d0576109cf6104e1565b5b6109da82546106cd565b6109e5828285610921565b600060209050601f831160018114610a185760008415610a06578287015190505b610a108582610992565b865550610a78565b601f198416610a2686610802565b60005b82811015610a4e57848901518255600182019150602085019450602081019050610a29565b86831015610a6b5784890151610a67601f891682610974565b8355505b6001600288020188555050505b505050505050565b7f486173682073746f726564207375636365737366756c6c792e00000000000000600082015250565b6000610ab6601983610430565b9150610ac182610a80565b602082019050919050565b60006040820190508181036000830152610ae6818461047c565b90508181036020830152610af981610aa9565b90509291505056fea26469706673582212208f5d7874d87dc5334d52cf7f0850bcf3921af421cde8068cc8d374cec8d2b91e64736f6c634300081b0033",
			"opcodes": "PUSH1 0x80 PUSH1 0x40 MSTORE CALLVALUE DUP1 ISZERO PUSH1 0xF JUMPI PUSH1 0x0 DUP1 REVERT JUMPDEST POP PUSH2 0xB37 DUP1 PUSH2 0x1F PUSH1 0x0 CODECOPY PUSH1 0x0 RETURN INVALID PUSH1 0x80 PUSH1 0x40 MSTORE CALLVALUE DUP1 ISZERO PUSH2 0x10 JUMPI PUSH1 0x0 DUP1 REVERT JUMPDEST POP PUSH1 0x4 CALLDATASIZE LT PUSH2 0x41 JUMPI PUSH1 0x0 CALLDATALOAD PUSH1 0xE0 SHR DUP1 PUSH4 0x6B2FAFA9 EQ PUSH2 0x46 JUMPI DUP1 PUSH4 0x75C6E781 EQ PUSH2 0x76 JUMPI DUP1 PUSH4 0x9B6BD89C EQ PUSH2 0xA6 JUMPI JUMPDEST PUSH1 0x0 DUP1 REVERT JUMPDEST PUSH2 0x60 PUSH1 0x4 DUP1 CALLDATASIZE SUB DUP2 ADD SWAP1 PUSH2 0x5B SWAP2 SWAP1 PUSH2 0x3F8 JUMP JUMPDEST PUSH2 0xC2 JUMP JUMPDEST PUSH1 0x40 MLOAD PUSH2 0x6D SWAP2 SWAP1 PUSH2 0x4B5 JUMP JUMPDEST PUSH1 0x40 MLOAD DUP1 SWAP2 SUB SWAP1 RETURN JUMPDEST PUSH2 0x90 PUSH1 0x4 DUP1 CALLDATASIZE SUB DUP2 ADD SWAP1 PUSH2 0x8B SWAP2 SWAP1 PUSH2 0x60C JUMP JUMPDEST PUSH2 0x1A4 JUMP JUMPDEST PUSH1 0x40 MLOAD PUSH2 0x9D SWAP2 SWAP1 PUSH2 0x683 JUMP JUMPDEST PUSH1 0x40 MLOAD DUP1 SWAP2 SUB SWAP1 RETURN JUMPDEST PUSH2 0xC0 PUSH1 0x4 DUP1 CALLDATASIZE SUB DUP2 ADD SWAP1 PUSH2 0xBB SWAP2 SWAP1 PUSH2 0x60C JUMP JUMPDEST PUSH2 0x352 JUMP JUMPDEST STOP JUMPDEST PUSH1 0x60 PUSH1 0x0 DUP1 PUSH1 0x0 DUP5 DUP2 MSTORE PUSH1 0x20 ADD SWAP1 DUP2 MSTORE PUSH1 0x20 ADD PUSH1 0x0 KECCAK256 DUP1 SLOAD PUSH2 0xE3 SWAP1 PUSH2 0x6CD JUMP JUMPDEST DUP1 PUSH1 0x1F ADD PUSH1 0x20 DUP1 SWAP2 DIV MUL PUSH1 0x20 ADD PUSH1 0x40 MLOAD SWAP1 DUP2 ADD PUSH1 0x40 MSTORE DUP1 SWAP3 SWAP2 SWAP1 DUP2 DUP2 MSTORE PUSH1 0x20 ADD DUP3 DUP1 SLOAD PUSH2 0x10F SWAP1 PUSH2 0x6CD JUMP JUMPDEST DUP1 ISZERO PUSH2 0x15C JUMPI DUP1 PUSH1 0x1F LT PUSH2 0x131 JUMPI PUSH2 0x100 DUP1 DUP4 SLOAD DIV MUL DUP4 MSTORE SWAP2 PUSH1 0x20 ADD SWAP2 PUSH2 0x15C JUMP JUMPDEST DUP3 ADD SWAP2 SWAP1 PUSH1 0x0 MSTORE PUSH1 0x20 PUSH1 0x0 KECCAK256 SWAP1 JUMPDEST DUP2 SLOAD DUP2 MSTORE SWAP1 PUSH1 0x1 ADD SWAP1 PUSH1 0x20 ADD DUP1 DUP4 GT PUSH2 0x13F JUMPI DUP3 SWAP1 SUB PUSH1 0x1F AND DUP3 ADD SWAP2 JUMPDEST POP POP POP POP POP SWAP1 POP DUP3 PUSH32 0x51E16DA829285E110AC9FB08565BAAEA4E1BF50F8633F01AFD7AC9FEF33BD494 DUP3 PUSH1 0x40 MLOAD PUSH2 0x193 SWAP2 SWAP1 PUSH2 0x74A JUMP JUMPDEST PUSH1 0x40 MLOAD DUP1 SWAP2 SUB SWAP1 LOG2 DUP1 SWAP2 POP POP SWAP2 SWAP1 POP JUMP JUMPDEST PUSH1 0x0 DUP1 PUSH1 0x0 DUP1 DUP6 DUP2 MSTORE PUSH1 0x20 ADD SWAP1 DUP2 MSTORE PUSH1 0x20 ADD PUSH1 0x0 KECCAK256 DUP1 SLOAD PUSH2 0x1C4 SWAP1 PUSH2 0x6CD JUMP JUMPDEST DUP1 PUSH1 0x1F ADD PUSH1 0x20 DUP1 SWAP2 DIV MUL PUSH1 0x20 ADD PUSH1 0x40 MLOAD SWAP1 DUP2 ADD PUSH1 0x40 MSTORE DUP1 SWAP3 SWAP2 SWAP1 DUP2 DUP2 MSTORE PUSH1 0x20 ADD DUP3 DUP1 SLOAD PUSH2 0x1F0 SWAP1 PUSH2 0x6CD JUMP JUMPDEST DUP1 ISZERO PUSH2 0x23D JUMPI DUP1 PUSH1 0x1F LT PUSH2 0x212 JUMPI PUSH2 0x100 DUP1 DUP4 SLOAD DIV MUL DUP4 MSTORE SWAP2 PUSH1 0x20 ADD SWAP2 PUSH2 0x23D JUMP JUMPDEST DUP3 ADD SWAP2 SWAP1 PUSH1 0x0 MSTORE PUSH1 0x20 PUSH1 0x0 KECCAK256 SWAP1 JUMPDEST DUP2 SLOAD DUP2 MSTORE SWAP1 PUSH1 0x1 ADD SWAP1 PUSH1 0x20 ADD DUP1 DUP4 GT PUSH2 0x220 JUMPI DUP3 SWAP1 SUB PUSH1 0x1F AND DUP3 ADD SWAP2 JUMPDEST POP POP POP POP POP SWAP1 POP PUSH1 0x0 DUP4 PUSH1 0x40 MLOAD PUSH1 0x20 ADD PUSH2 0x257 SWAP2 SWAP1 PUSH2 0x7BB JUMP JUMPDEST PUSH1 0x40 MLOAD PUSH1 0x20 DUP2 DUP4 SUB SUB DUP2 MSTORE SWAP1 PUSH1 0x40 MSTORE DUP1 MLOAD SWAP1 PUSH1 0x20 ADD KECCAK256 DUP3 PUSH1 0x40 MLOAD PUSH1 0x20 ADD PUSH2 0x27E SWAP2 SWAP1 PUSH2 0x7BB JUMP JUMPDEST PUSH1 0x40 MLOAD PUSH1 0x20 DUP2 DUP4 SUB SUB DUP2 MSTORE SWAP1 PUSH1 0x40 MSTORE DUP1 MLOAD SWAP1 PUSH1 0x20 ADD KECCAK256 EQ SWAP1 POP DUP5 PUSH32 0x37C2A17CDDBEA8F1B888D6FD9218CC24B58F39DFD442D9C1202BA76A3423A644 DUP3 DUP4 PUSH2 0x2FA JUMPI PUSH1 0x40 MLOAD DUP1 PUSH1 0x40 ADD PUSH1 0x40 MSTORE DUP1 PUSH1 0x19 DUP2 MSTORE PUSH1 0x20 ADD PUSH32 0x4861736820766572696669636174696F6E206661696C65642E00000000000000 DUP2 MSTORE POP PUSH2 0x331 JUMP JUMPDEST PUSH1 0x40 MLOAD DUP1 PUSH1 0x40 ADD PUSH1 0x40 MSTORE DUP1 PUSH1 0x1B DUP2 MSTORE PUSH1 0x20 ADD PUSH32 0x48617368207665726966696564207375636365737366756C6C792E0000000000 DUP2 MSTORE POP JUMPDEST PUSH1 0x40 MLOAD PUSH2 0x33F SWAP3 SWAP2 SWAP1 PUSH2 0x7D2 JUMP JUMPDEST PUSH1 0x40 MLOAD DUP1 SWAP2 SUB SWAP1 LOG2 DUP1 SWAP3 POP POP POP SWAP3 SWAP2 POP POP JUMP JUMPDEST DUP1 PUSH1 0x0 DUP1 DUP5 DUP2 MSTORE PUSH1 0x20 ADD SWAP1 DUP2 MSTORE PUSH1 0x20 ADD PUSH1 0x0 KECCAK256 SWAP1 DUP2 PUSH2 0x371 SWAP2 SWAP1 PUSH2 0x9AE JUMP JUMPDEST POP DUP2 PUSH32 0x962FB7A924159DC0966B10DA109020686F23E058EDE690E3B46058D486099DEE DUP3 PUSH1 0x40 MLOAD PUSH2 0x3A2 SWAP2 SWAP1 PUSH2 0xACC JUMP JUMPDEST PUSH1 0x40 MLOAD DUP1 SWAP2 SUB SWAP1 LOG2 POP POP JUMP JUMPDEST PUSH1 0x0 PUSH1 0x40 MLOAD SWAP1 POP SWAP1 JUMP JUMPDEST PUSH1 0x0 DUP1 REVERT JUMPDEST PUSH1 0x0 DUP1 REVERT JUMPDEST PUSH1 0x0 DUP2 SWAP1 POP SWAP2 SWAP1 POP JUMP JUMPDEST PUSH2 0x3D5 DUP2 PUSH2 0x3C2 JUMP JUMPDEST DUP2 EQ PUSH2 0x3E0 JUMPI PUSH1 0x0 DUP1 REVERT JUMPDEST POP JUMP JUMPDEST PUSH1 0x0 DUP2 CALLDATALOAD SWAP1 POP PUSH2 0x3F2 DUP2 PUSH2 0x3CC JUMP JUMPDEST SWAP3 SWAP2 POP POP JUMP JUMPDEST PUSH1 0x0 PUSH1 0x20 DUP3 DUP5 SUB SLT ISZERO PUSH2 0x40E JUMPI PUSH2 0x40D PUSH2 0x3B8 JUMP JUMPDEST JUMPDEST PUSH1 0x0 PUSH2 0x41C DUP5 DUP3 DUP6 ADD PUSH2 0x3E3 JUMP JUMPDEST SWAP2 POP POP SWAP3 SWAP2 POP POP JUMP JUMPDEST PUSH1 0x0 DUP2 MLOAD SWAP1 POP SWAP2 SWAP1 POP JUMP JUMPDEST PUSH1 0x0 DUP3 DUP3 MSTORE PUSH1 0x20 DUP3 ADD SWAP1 POP SWAP3 SWAP2 POP POP JUMP JUMPDEST PUSH1 0x0 JUMPDEST DUP4 DUP2 LT ISZERO PUSH2 0x45F JUMPI DUP1 DUP3 ADD MLOAD DUP2 DUP5 ADD MSTORE PUSH1 0x20 DUP2 ADD SWAP1 POP PUSH2 0x444 JUMP JUMPDEST PUSH1 0x0 DUP5 DUP5 ADD MSTORE POP POP POP POP JUMP JUMPDEST PUSH1 0x0 PUSH1 0x1F NOT PUSH1 0x1F DUP4 ADD AND SWAP1 POP SWAP2 SWAP1 POP JUMP JUMPDEST PUSH1 0x0 PUSH2 0x487 DUP3 PUSH2 0x425 JUMP JUMPDEST PUSH2 0x491 DUP2 DUP6 PUSH2 0x430 JUMP JUMPDEST SWAP4 POP PUSH2 0x4A1 DUP2 DUP6 PUSH1 0x20 DUP7 ADD PUSH2 0x441 JUMP JUMPDEST PUSH2 0x4AA DUP2 PUSH2 0x46B JUMP JUMPDEST DUP5 ADD SWAP2 POP POP SWAP3 SWAP2 POP POP JUMP JUMPDEST PUSH1 0x0 PUSH1 0x20 DUP3 ADD SWAP1 POP DUP2 DUP2 SUB PUSH1 0x0 DUP4 ADD MSTORE PUSH2 0x4CF DUP2 DUP5 PUSH2 0x47C JUMP JUMPDEST SWAP1 POP SWAP3 SWAP2 POP POP JUMP JUMPDEST PUSH1 0x0 DUP1 REVERT JUMPDEST PUSH1 0x0 DUP1 REVERT JUMPDEST PUSH32 0x4E487B7100000000000000000000000000000000000000000000000000000000 PUSH1 0x0 MSTORE PUSH1 0x41 PUSH1 0x4 MSTORE PUSH1 0x24 PUSH1 0x0 REVERT JUMPDEST PUSH2 0x519 DUP3 PUSH2 0x46B JUMP JUMPDEST DUP2 ADD DUP2 DUP2 LT PUSH8 0xFFFFFFFFFFFFFFFF DUP3 GT OR ISZERO PUSH2 0x538 JUMPI PUSH2 0x537 PUSH2 0x4E1 JUMP JUMPDEST JUMPDEST DUP1 PUSH1 0x40 MSTORE POP POP POP JUMP JUMPDEST PUSH1 0x0 PUSH2 0x54B PUSH2 0x3AE JUMP JUMPDEST SWAP1 POP PUSH2 0x557 DUP3 DUP3 PUSH2 0x510 JUMP JUMPDEST SWAP2 SWAP1 POP JUMP JUMPDEST PUSH1 0x0 PUSH8 0xFFFFFFFFFFFFFFFF DUP3 GT ISZERO PUSH2 0x577 JUMPI PUSH2 0x576 PUSH2 0x4E1 JUMP JUMPDEST JUMPDEST PUSH2 0x580 DUP3 PUSH2 0x46B JUMP JUMPDEST SWAP1 POP PUSH1 0x20 DUP2 ADD SWAP1 POP SWAP2 SWAP1 POP JUMP JUMPDEST DUP3 DUP2 DUP4 CALLDATACOPY PUSH1 0x0 DUP4 DUP4 ADD MSTORE POP POP POP JUMP JUMPDEST PUSH1 0x0 PUSH2 0x5AF PUSH2 0x5AA DUP5 PUSH2 0x55C JUMP JUMPDEST PUSH2 0x541 JUMP JUMPDEST SWAP1 POP DUP3 DUP2 MSTORE PUSH1 0x20 DUP2 ADD DUP5 DUP5 DUP5 ADD GT ISZERO PUSH2 0x5CB JUMPI PUSH2 0x5CA PUSH2 0x4DC JUMP JUMPDEST JUMPDEST PUSH2 0x5D6 DUP5 DUP3 DUP6 PUSH2 0x58D JUMP JUMPDEST POP SWAP4 SWAP3 POP POP POP JUMP JUMPDEST PUSH1 0x0 DUP3 PUSH1 0x1F DUP4 ADD SLT PUSH2 0x5F3 JUMPI PUSH2 0x5F2 PUSH2 0x4D7 JUMP JUMPDEST JUMPDEST DUP2 CALLDATALOAD PUSH2 0x603 DUP5 DUP3 PUSH1 0x20 DUP7 ADD PUSH2 0x59C JUMP JUMPDEST SWAP2 POP POP SWAP3 SWAP2 POP POP JUMP JUMPDEST PUSH1 0x0 DUP1 PUSH1 0x40 DUP4 DUP6 SUB SLT ISZERO PUSH2 0x623 JUMPI PUSH2 0x622 PUSH2 0x3B8 JUMP JUMPDEST JUMPDEST PUSH1 0x0 PUSH2 0x631 DUP6 DUP3 DUP7 ADD PUSH2 0x3E3 JUMP JUMPDEST SWAP3 POP POP PUSH1 0x20 DUP4 ADD CALLDATALOAD PUSH8 0xFFFFFFFFFFFFFFFF DUP2 GT ISZERO PUSH2 0x652 JUMPI PUSH2 0x651 PUSH2 0x3BD JUMP JUMPDEST JUMPDEST PUSH2 0x65E DUP6 DUP3 DUP7 ADD PUSH2 0x5DE JUMP JUMPDEST SWAP2 POP POP SWAP3 POP SWAP3 SWAP1 POP JUMP JUMPDEST PUSH1 0x0 DUP2 ISZERO ISZERO SWAP1 POP SWAP2 SWAP1 POP JUMP JUMPDEST PUSH2 0x67D DUP2 PUSH2 0x668 JUMP JUMPDEST DUP3 MSTORE POP POP JUMP JUMPDEST PUSH1 0x0 PUSH1 0x20 DUP3 ADD SWAP1 POP PUSH2 0x698 PUSH1 0x0 DUP4 ADD DUP5 PUSH2 0x674 JUMP JUMPDEST SWAP3 SWAP2 POP POP JUMP JUMPDEST PUSH32 0x4E487B7100000000000000000000000000000000000000000000000000000000 PUSH1 0x0 MSTORE PUSH1 0x22 PUSH1 0x4 MSTORE PUSH1 0x24 PUSH1 0x0 REVERT JUMPDEST PUSH1 0x0 PUSH1 0x2 DUP3 DIV SWAP1 POP PUSH1 0x1 DUP3 AND DUP1 PUSH2 0x6E5 JUMPI PUSH1 0x7F DUP3 AND SWAP2 POP JUMPDEST PUSH1 0x20 DUP3 LT DUP2 SUB PUSH2 0x6F8 JUMPI PUSH2 0x6F7 PUSH2 0x69E JUMP JUMPDEST JUMPDEST POP SWAP2 SWAP1 POP JUMP JUMPDEST PUSH32 0x4861736820726574726965766564207375636365737366756C6C792E00000000 PUSH1 0x0 DUP3 ADD MSTORE POP JUMP JUMPDEST PUSH1 0x0 PUSH2 0x734 PUSH1 0x1C DUP4 PUSH2 0x430 JUMP JUMPDEST SWAP2 POP PUSH2 0x73F DUP3 PUSH2 0x6FE JUMP JUMPDEST PUSH1 0x20 DUP3 ADD SWAP1 POP SWAP2 SWAP1 POP JUMP JUMPDEST PUSH1 0x0 PUSH1 0x40 DUP3 ADD SWAP1 POP DUP2 DUP2 SUB PUSH1 0x0 DUP4 ADD MSTORE PUSH2 0x764 DUP2 DUP5 PUSH2 0x47C JUMP JUMPDEST SWAP1 POP DUP2 DUP2 SUB PUSH1 0x20 DUP4 ADD MSTORE PUSH2 0x777 DUP2 PUSH2 0x727 JUMP JUMPDEST SWAP1 POP SWAP3 SWAP2 POP POP JUMP JUMPDEST PUSH1 0x0 DUP2 SWAP1 POP SWAP3 SWAP2 POP POP JUMP JUMPDEST PUSH1 0x0 PUSH2 0x795 DUP3 PUSH2 0x425 JUMP JUMPDEST PUSH2 0x79F DUP2 DUP6 PUSH2 0x77F JUMP JUMPDEST SWAP4 POP PUSH2 0x7AF DUP2 DUP6 PUSH1 0x20 DUP7 ADD PUSH2 0x441 JUMP JUMPDEST DUP1 DUP5 ADD SWAP2 POP POP SWAP3 SWAP2 POP POP JUMP JUMPDEST PUSH1 0x0 PUSH2 0x7C7 DUP3 DUP5 PUSH2 0x78A JUMP JUMPDEST SWAP2 POP DUP2 SWAP1 POP SWAP3 SWAP2 POP POP JUMP JUMPDEST PUSH1 0x0 PUSH1 0x40 DUP3 ADD SWAP1 POP PUSH2 0x7E7 PUSH1 0x0 DUP4 ADD DUP6 PUSH2 0x674 JUMP JUMPDEST DUP2 DUP2 SUB PUSH1 0x20 DUP4 ADD MSTORE PUSH2 0x7F9 DUP2 DUP5 PUSH2 0x47C JUMP JUMPDEST SWAP1 POP SWAP4 SWAP3 POP POP POP JUMP JUMPDEST PUSH1 0x0 DUP2 SWAP1 POP DUP2 PUSH1 0x0 MSTORE PUSH1 0x20 PUSH1 0x0 KECCAK256 SWAP1 POP SWAP2 SWAP1 POP JUMP JUMPDEST PUSH1 0x0 PUSH1 0x20 PUSH1 0x1F DUP4 ADD DIV SWAP1 POP SWAP2 SWAP1 POP JUMP JUMPDEST PUSH1 0x0 DUP3 DUP3 SHL SWAP1 POP SWAP3 SWAP2 POP POP JUMP JUMPDEST PUSH1 0x0 PUSH1 0x8 DUP4 MUL PUSH2 0x864 PUSH32 0xFFFFFFFFFFFFFFFFFFFFFFFFFFFFFFFFFFFFFFFFFFFFFFFFFFFFFFFFFFFFFFFF DUP3 PUSH2 0x827 JUMP JUMPDEST PUSH2 0x86E DUP7 DUP4 PUSH2 0x827 JUMP JUMPDEST SWAP6 POP DUP1 NOT DUP5 AND SWAP4 POP DUP1 DUP7 AND DUP5 OR SWAP3 POP POP POP SWAP4 SWAP3 POP POP POP JUMP JUMPDEST PUSH1 0x0 DUP2 SWAP1 POP SWAP2 SWAP1 POP JUMP JUMPDEST PUSH1 0x0 PUSH2 0x8AB PUSH2 0x8A6 PUSH2 0x8A1 DUP5 PUSH2 0x3C2 JUMP JUMPDEST PUSH2 0x886 JUMP JUMPDEST PUSH2 0x3C2 JUMP JUMPDEST SWAP1 POP SWAP2 SWAP1 POP JUMP JUMPDEST PUSH1 0x0 DUP2 SWAP1 POP SWAP2 SWAP1 POP JUMP JUMPDEST PUSH2 0x8C5 DUP4 PUSH2 0x890 JUMP JUMPDEST PUSH2 0x8D9 PUSH2 0x8D1 DUP3 PUSH2 0x8B2 JUMP JUMPDEST DUP5 DUP5 SLOAD PUSH2 0x834 JUMP JUMPDEST DUP3 SSTORE POP POP POP POP JUMP JUMPDEST PUSH1 0x0 SWAP1 JUMP JUMPDEST PUSH2 0x8EE PUSH2 0x8E1 JUMP JUMPDEST PUSH2 0x8F9 DUP2 DUP5 DUP5 PUSH2 0x8BC JUMP JUMPDEST POP POP POP JUMP JUMPDEST JUMPDEST DUP2 DUP2 LT ISZERO PUSH2 0x91D JUMPI PUSH2 0x912 PUSH1 0x0 DUP3 PUSH2 0x8E6 JUMP JUMPDEST PUSH1 0x1 DUP2 ADD SWAP1 POP PUSH2 0x8FF JUMP JUMPDEST POP POP JUMP JUMPDEST PUSH1 0x1F DUP3 GT ISZERO PUSH2 0x962 JUMPI PUSH2 0x933 DUP2 PUSH2 0x802 JUMP JUMPDEST PUSH2 0x93C DUP5 PUSH2 0x817 JUMP JUMPDEST DUP2 ADD PUSH1 0x20 DUP6 LT ISZERO PUSH2 0x94B JUMPI DUP2 SWAP1 POP JUMPDEST PUSH2 0x95F PUSH2 0x957 DUP6 PUSH2 0x817 JUMP JUMPDEST DUP4 ADD DUP3 PUSH2 0x8FE JUMP JUMPDEST POP POP JUMPDEST POP POP POP JUMP JUMPDEST PUSH1 0x0 DUP3 DUP3 SHR SWAP1 POP SWAP3 SWAP2 POP POP JUMP JUMPDEST PUSH1 0x0 PUSH2 0x985 PUSH1 0x0 NOT DUP5 PUSH1 0x8 MUL PUSH2 0x967 JUMP JUMPDEST NOT DUP1 DUP4 AND SWAP2 POP POP SWAP3 SWAP2 POP POP JUMP JUMPDEST PUSH1 0x0 PUSH2 0x99E DUP4 DUP4 PUSH2 0x974 JUMP JUMPDEST SWAP2 POP DUP3 PUSH1 0x2 MUL DUP3 OR SWAP1 POP SWAP3 SWAP2 POP POP JUMP JUMPDEST PUSH2 0x9B7 DUP3 PUSH2 0x425 JUMP JUMPDEST PUSH8 0xFFFFFFFFFFFFFFFF DUP2 GT ISZERO PUSH2 0x9D0 JUMPI PUSH2 0x9CF PUSH2 0x4E1 JUMP JUMPDEST JUMPDEST PUSH2 0x9DA DUP3 SLOAD PUSH2 0x6CD JUMP JUMPDEST PUSH2 0x9E5 DUP3 DUP3 DUP6 PUSH2 0x921 JUMP JUMPDEST PUSH1 0x0 PUSH1 0x20 SWAP1 POP PUSH1 0x1F DUP4 GT PUSH1 0x1 DUP2 EQ PUSH2 0xA18 JUMPI PUSH1 0x0 DUP5 ISZERO PUSH2 0xA06 JUMPI DUP3 DUP8 ADD MLOAD SWAP1 POP JUMPDEST PUSH2 0xA10 DUP6 DUP3 PUSH2 0x992 JUMP JUMPDEST DUP7 SSTORE POP PUSH2 0xA78 JUMP JUMPDEST PUSH1 0x1F NOT DUP5 AND PUSH2 0xA26 DUP7 PUSH2 0x802 JUMP JUMPDEST PUSH1 0x0 JUMPDEST DUP3 DUP2 LT ISZERO PUSH2 0xA4E JUMPI DUP5 DUP10 ADD MLOAD DUP3 SSTORE PUSH1 0x1 DUP3 ADD SWAP2 POP PUSH1 0x20 DUP6 ADD SWAP5 POP PUSH1 0x20 DUP2 ADD SWAP1 POP PUSH2 0xA29 JUMP JUMPDEST DUP7 DUP4 LT ISZERO PUSH2 0xA6B JUMPI DUP5 DUP10 ADD MLOAD PUSH2 0xA67 PUSH1 0x1F DUP10 AND DUP3 PUSH2 0x974 JUMP JUMPDEST DUP4 SSTORE POP JUMPDEST PUSH1 0x1 PUSH1 0x2 DUP9 MUL ADD DUP9 SSTORE POP POP POP JUMPDEST POP POP POP POP POP POP JUMP JUMPDEST PUSH32 0x486173682073746F726564207375636365737366756C6C792E00000000000000 PUSH1 0x0 DUP3 ADD MSTORE POP JUMP JUMPDEST PUSH1 0x0 PUSH2 0xAB6 PUSH1 0x19 DUP4 PUSH2 0x430 JUMP JUMPDEST SWAP2 POP PUSH2 0xAC1 DUP3 PUSH2 0xA80 JUMP JUMPDEST PUSH1 0x20 DUP3 ADD SWAP1 POP SWAP2 SWAP1 POP JUMP JUMPDEST PUSH1 0x0 PUSH1 0x40 DUP3 ADD SWAP1 POP DUP2 DUP2 SUB PUSH1 0x0 DUP4 ADD MSTORE PUSH2 0xAE6 DUP2 DUP5 PUSH2 0x47C JUMP JUMPDEST SWAP1 POP DUP2 DUP2 SUB PUSH1 0x20 DUP4 ADD MSTORE PUSH2 0xAF9 DUP2 PUSH2 0xAA9 JUMP JUMPDEST SWAP1 POP SWAP3 SWAP2 POP POP JUMP INVALID LOG2 PUSH5 0x6970667358 0x22 SLT KECCAK256 DUP16 TSTORE PUSH25 0x74D87DC5334D52CF7F0850BCF3921AF421CDE8068CC8D374CE 0xC8 0xD2 0xB9 0x1E PUSH5 0x736F6C6343 STOP ADDMOD SHL STOP CALLER "
		},
		"gasEstimates": {
			"creation": {
				"codeDepositCost": "574200",
				"executionCost": "606",
				"totalCost": "574806"
			},
			"external": {
				"getHash(uint256)": "infinite",
				"storeHash(uint256,string)": "infinite",
				"verifyHash(uint256,string)": "infinite"
			}
		},
		"methodIdentifiers": {
			"getHash(uint256)": "6b2fafa9",
			"storeHash(uint256,string)": "9b6bd89c",
			"verifyHash(uint256,string)": "75c6e781"
		}
	},
	"abi": [
		{
			"anonymous": false,
			"inputs": [
				{
					"indexed": true,
					"internalType": "uint256",
					"name": "id",
					"type": "uint256"
				},
				{
					"indexed": false,
					"internalType": "string",
					"name": "hash",
					"type": "string"
				},
				{
					"indexed": false,
					"internalType": "string",
					"name": "message",
					"type": "string"
				}
			],
			"name": "HashRetrieved",
			"type": "event"
		},
		{
			"anonymous": false,
			"inputs": [
				{
					"indexed": true,
					"internalType": "uint256",
					"name": "id",
					"type": "uint256"
				},
				{
					"indexed": false,
					"internalType": "string",
					"name": "hash",
					"type": "string"
				},
				{
					"indexed": false,
					"internalType": "string",
					"name": "message",
					"type": "string"
				}
			],
			"name": "HashStored",
			"type": "event"
		},
		{
			"anonymous": false,
			"inputs": [
				{
					"indexed": true,
					"internalType": "uint256",
					"name": "id",
					"type": "uint256"
				},
				{
					"indexed": false,
					"internalType": "bool",
					"name": "isVerified",
					"type": "bool"
				},
				{
					"indexed": false,
					"internalType": "string",
					"name": "message",
					"type": "string"
				}
			],
			"name": "HashVerified",
			"type": "event"
		},
		{
			"inputs": [
				{
					"internalType": "uint256",
					"name": "id",
					"type": "uint256"
				}
			],
			"name": "getHash",
			"outputs": [
				{
					"internalType": "string",
					"name": "",
					"type": "string"
				}
			],
			"stateMutability": "nonpayable",
			"type": "function"
		},
		{
			"inputs": [
				{
					"internalType": "uint256",
					"name": "id",
					"type": "uint256"
				},
				{
					"internalType": "string",
					"name": "hash",
					"type": "string"
				}
			],
			"name": "storeHash",
			"outputs": [],
			"stateMutability": "nonpayable",
			"type": "function"
		},
		{
			"inputs": [
				{
					"internalType": "uint256",
					"name": "id",
					"type": "uint256"
				},
				{
					"internalType": "string",
					"name": "hashToVerify",
					"type": "string"
				}
			],
			"name": "verifyHash",
			"outputs": [
				{
					"internalType": "bool",
					"name": "",
					"type": "bool"
				}
			],
			"stateMutability": "nonpayable",
			"type": "function"
		}
	]
}